:020000040800F2
:10000000E8070020A10100086B2A00080D2600085F
:10001000692A00083F120008BB2D000800000000FC
:100020000000000000000000000000006F2A00082F
:1000300009140008000000006D2A0008712A000859
:10004000BB010008BB010008BB010008BB010008A0
:10005000BB010008BB010008BB010008BB01000890
:10006000BB010008BB010008BB010008BB01000880
:10007000BB010008BB010008BB010008BB01000870
:10008000BB010008BB010008BB010008BB01000860
:10009000BB010008BB010008BB01000813140008E5
:1000A000BB010008C52A0008BB010008BB0100080D
:1000B000BB010008E52A0008BB010008BB010008DD
:1000C000BB010008BB010008BB010008BB01000820
:1000D000BB010008BB010008BB010008BB01000810
:1000E0000B140008BB010008BB01000800F002F877
:1000F00000F047F80AA090E8000C82448344AAF17B
:100100000107DA4501D100F03CF8AFF2090EBAE878
:100110000F0013F0010F18BFFB1A43F0010318473B
:10012000D4350000F4350000103A24BF78C878C1F7
:10013000FAD8520724BF30C830C144BF04680C60ED
:10014000704700000023002400250026103A28BF35
:1001500078C1FBD8520728BF30C148BF0B60704739
:10016000662903F06682002070471FB500F02AFB65
:1001700004000020002102F07FFFE0601FBD10B5E9
:1001800010BD00F01FFC1146FFF7EFFF02F0E0FE8C
:1001900000F03DFC03B4FFF7F2FF03BC00F080FC6D
:1001A0000948804709480047FEE7FEE7FEE7FEE70B
:1001B000FEE7FEE7FEE7FEE7FEE7FEE70448054947
:1001C000054A064B70470000C32A0008ED000008EE
:1001D000E8010020E8070020E8030020E8030020F1
:1001E0000FB41CB5074B06AA7B44694600900598DE
:1001F00000F0CFFA0020694600F0DEFA1CBC5DF882
:1002000014FB0000CD0500002DE9F0474FF0000A77
:1002100089460446C0F820A02046E16888470028A7
:1002200076D0252806D0D4E901219047206A401CC9
:100230002062F1E7E168204600258847C4F81CA049
:1002400006460027C4F818A02A2E09D0304602F02E
:10025000D9FD38B304EB8708303EC8F8186019E0C0
:1002600059F8041B204604EB87029161E168884736
:10027000012F064618D1E069002820DA25F0200574
:100280001DE0D8F8180000EB800006EB4000303885
:10029000C8F818002046E1688847064602F0B2FD1B
:1002A0000028EED1012F0AD02E2E08D12046E16879
:1002B00088477F1C0646022F45F02005C4DBA06955
:1002C000002803DA404245F00105A061E80701D0AB
:1002D00025F01005B6B1A6F14100192802D8203644
:1002E00045F400654A463146204625604D46FFF7F5
:1002F00037FF58B1012806D0ED1D25F0070000F1A9
:10030000080989E704E005F1040985E730468AE732
:10031000206ABDE8F0874FF0000200B5134694460E
:100320009646203922BFA0E80C50A0E80C50B1F14D
:100330002001BFF4F7AF090728BFA0E80C5048BF61
:100340000CC05DF804EB890028BF40F8042B08BFFF
:10035000704748BF20F8022B11F0804F18BF00F8FB
:10036000012B704770477047704770472DE9FF4F6A
:100370000C461E464FF0FF378BB0D2E90001DDF886
:1003800060800A908A46C1F30A5505B93D460021AE
:1003900008464FF00000BAF1000F00F4400005DA03
:1003A00000EB80004FF4400101EA50004FEA905901
:1003B000B9F1010F00DDB9460A9850EA4A000ED0A3
:1003C00044F61050A5F2FF3545432F14B8F1000F45
:1003D0001ED07542291E1EDDC9F100021CE0B8F1D5
:1003E000010F4FF0000001D0302103E0F24305E09F
:1003F0002154401CB042FBDB304600220021215436
:100400000B99C1F80880C1E900200FB0BDE8F08F5A
:10041000BD1B6D1CDEE74A4600DA694206A800F003
:100420005BFA06AB93E8070003AB83E8070050468E
:100430000A9900F03CFB8DE80700A0F500501F383A
:1004400000900398002D0ADD42F21F014A4608443D
:10045000002303A90390684600F0A5FD09E0A0F57C
:1004600000504A461F38002303A90390684600F055
:10047000AFFD8DE807000004000C03D04FF0FF3003
:10048000410800E01046B8F1000F03D000220092AE
:1004900015461EE0751E05D400F098F930326255FD
:1004A0006D1EF9D5B3460122084302D000227F1CFD
:1004B00004E02078302801D100227F1E002A09970D
:1004C00084D01DE0112D07DA00F080F9303262553A
:1004D0006D1C50EA0102F5D1084302D00098C8B162
:1004E0000EE00021681E05E0235C625C6354225428
:1004F000401E491C8142F7DBAB46A81B401E0990F9
:10050000002004F80B000B98099AC0F80880C0E995
:10051000002B7AE711264FF0000857E72DE9F04F3E
:1005200088460446D21D22F0070191B0D1E90001AE
:10053000CDE90A0102F042FC02460B98C00F01D03F
:100540002D2007E02068810701D52B2002E0202123
:1005500001EAC000032A099001D0072A05DB0346FF
:100560004146204600F078F90BE12078800601D55D
:10057000E06900E00620B8F1650F814606D0B8F1C9
:10058000660F18D0B8F1670F70D131E00020B9F1D3
:10059000110F009001DB112301E009F101030AAA08
:1005A00001A90CA8FFF7E2FEDDE90C70002609F1B5
:1005B0000105834647E001204B4600904FF000477D
:1005C0000AAA01A90CA8FFF7D1FEDDE90DB00C992C
:1005D0005D46002610B909F101000D18B9EB0500C0
:1005E00003D4C0F1FF3609F10105A5EB09002BE0AA
:1005F000B9F1010F01DA4FF001090020B9F1110F33
:100600000090484601DD112300E003460AAA01A933
:100610000CA8FFF7ABFEDDE90C704D4600268346C3
:10062000207800070AD4AB4500DA5D4601A8012D09
:1006300004DD411911F8011C302907D04F4502DAB9
:1006400017F1040F04DA012082460FE06D1EEEE779
:10065000002F02DCED1B3E4403E0781CA84200DDC5
:100660007D1CB81B00F1010A4FF0004720780007FD
:1006700003D4AA4501DB4FF0FF3A0021B7F1004F48
:100680000DF143088DF8431024D002202B23002FB6
:1006900001DA7F422D230A21021EA0F1010000DCB5
:1006A0005FB197FBF1FC97FBF1F201FB1C7C174655
:1006B0000CF1300C08F801CDEEE7A8F10100037051
:1006C0002188090501D5452100E06521A0F1010837
:1006D00000F8011C09980FA9A1EB0807FF1D00B144
:1006E0000120411901EBEA70A1693844081A401E43
:1006F000A0612078C00602D42046AFF3008009989C
:1007000028B1D4E901219047206A401C206220785A
:10071000C00622D52046AFF300801EE0002E04DB89
:10072000B34502DD01A8805D00E03020D4E901215D
:100730009047206A401C2062761CAAF101005FEA03
:10074000000A0AD100F03EF8C0680168405CD4E9B4
:1007500001219047206A401C2062281EA5F1010556
:10076000DCDC07E0D4E9012118F8010B9047206A8E
:10077000401C2062381EA7F10107F3DC2046AFF3CE
:100780000080032011B041E601694A1C026108782B
:10079000704700B58FB0CDE90131002105910549C1
:1007A0007944CDE9031011466846FFF72DFD0FB0DF
:1007B00000BD0000E5FFFFFF0A6802F8010B0A60B8
:1007C0007047000000487047A801002030B5B0F124
:1007D0000A024FEA900E71F100034EEA817EB0EBFF
:1007E0000E0061EB91014FEA101E4EEA017E10EB04
:1007F0000E0041EB11114FEA102E4EEA016E10EB84
:100800000E0041EB11214FEA104E4EEA014E10EB63
:100810000E0041EB1141401841F100014FEAD000B8
:1008200040EA41704FEAD10110EB80054FEA8104A4
:1008300044EA907444EB01046D1944EB0404521B28
:10084000A3414FF0000348BF0A3200D530BD401C21
:1008500041F1000130BD00002DE9F0411F46044682
:1008600003260168072A01F4006004DB08B116A51D
:1008700005E016A503E008B115A500E015A521F0D7
:1008800010002060A069C01EA0610FB1401EA061D1
:100890002046AFF300804FB1D4E90121384690479C
:1008A000206A401C2062C01C206206E0206AFAE731
:1008B000D4E9012115F8010B9047761EF8D22046A5
:1008C000AFF30080BDE8F0814E414E006E616E00D6
:1008D000494E4600696E66002DE9F047814616468E
:1008E0008AB0354878440DC88DE80D003248784408
:1008F000801C03AC0DC884E80D0041F69B30084411
:10090000372190FBF1F290FBF1F5A5F1800501FB99
:1009100012041B3C02D56442012000E00020DFF8F5
:1009200098A080460027FA44AAF1BE0A0EE0E0072C
:100930000AD03246684607EB470101230AEB8101E2
:1009400000F046FB8DE8070064107F1C002CEED100
:10095000194F7F44AE3F19E0E80715D007EB0410AC
:100960000DF1180A90E80E008AE80E00C068F04207
:1009700001D1981908903246012306A903A800F076
:1009800027FB03AB83E807006D10641C002DE3D147
:100990004FF0010332466946B8F1000F03A802D0B8
:1009A00000F001FB01E000F013FBC9E90001C9F808
:1009B00008200AB0BDE8F087F42D00000048704719
:1009C000880100207546FFF7F9FFAE46050069462D
:1009D000534620F00700854618B020B5FFF7EEFB20
:1009E000BDE820404FF000064FF000074FF0000830
:1009F0004FF0000B21F00701AC46ACE8C009ACE8B1
:100A0000C009ACE8C009ACE8C0098D46704710B514
:100A10000446AFF300802046BDE81040FFF7BABBA4
:100A20004FF0013C50F8042B51F8043B9A4221D17D
:100A3000A2EB0C03934313EACC1317D150F8042B09
:100A400051F8043B9A4215D1A2EB0C03934313EAED
:100A5000CC130BD150F8042B51F8043B9A4209D126
:100A6000A2EB0C03934313EACC13DBD04FF000004E
:100A7000704700BFD01A01BAB1FA81F101F0180134
:100A800022FA01F0CB40C1F12001DBB2C0B2C01AA2
:100A90002CFA01F3D11A914311EAC311E6D1704740
:100AA00001491820ABBEFEE72600020070475FEA4E
:100AB000400C08BF91F0000F4FEA8C234FEAC1228F
:100AC00043EA51514FEA1C5018BF00F5F0404FEA7D
:100AD000300018BF41F000415FEA6C5C00F02980F3
:100AE000BCF1FF3F08BF40F080407047130C06BFC9
:100AF00012044FF0100C4FF0000C130E04BF120242
:100B00000CF1080C130F04BF12010CF1040C930F2D
:100B100004BF92000CF1020CD30F04BF52000CF181
:100B2000010C11464FF00002A0F11F00A0EB0C00D9
:100B3000704711F0004F08BF704731F000413FF49B
:100B4000D5AF0B0C06BF09044FF0100C4FF0000C92
:100B50000B0E04BF09020CF1080C0B0F04BF0901B6
:100B60000CF1040C8B0F04BF89000CF1020CCB0FAD
:100B700004BF49000CF1010CCCF12003A0EB0C00E8
:100B800022FA03F302FA0CF241EA030100F1010038
:100B9000704720F07F4C80EA030023F07F47ACEBE6
:100BA000070303F57C5300F0004003F1FF032DE938
:100BB00080494FEA154B09B44FEA144325EA0B4E1E
:100BC00024EA03480FF2042606EB132749083E786F
:100BD0005FEA320203FB0667C7F5000707FB06F66C
:100BE0004FEA54374FEAD64606F1020607FB066C79
:100BF000CCF1005C4FEA1C472CEA074C07FB06F4DB
:100C00000CFB06F504EB15464FEA961634BF0020A0
:100C10004FF000404FEAD13706FB07FC4FEA1C4C6F
:100C20000CFB0BF7D21B03FB0CF761EB07010CFB72
:100C30000EF7B0EB074072EB17420CFB08F734BF1E
:100C4000A2EB0742B2EB074261EB17414FEA0C44BB
:100C50004FEA910706FB07FC4FEA1C4C0CFB0BF715
:100C6000B0EBC74072EB573203FB0CF734BFA2EB7B
:100C7000C742B2EBC74261EB57310CFB0EF7B0EB4A
:100C8000C70072EB57720CFB08F734BFA2EBC70228
:100C9000B2EBC70261EB5771039F4FEA816141EAF2
:100CA000921104EBCC044FEAD1374FEA826206FB83
:100CB00007FC42EA90124FEA80604FEA1C4C0CFBA2
:100CC0000BF7D21B03FB0CF761EB07010CFB0EF7D4
:100CD000B0EB074072EB17420CFB08F734BFA2EBF6
:100CE0000742B2EB074261EB17414FEA8C554FEADE
:100CF000910704EB9C2406FB07FC4FEA1C4C0CFB01
:100D00000BF7B0EBC74072EB573203FB0CF734BF65
:100D1000A2EBC742B2EBC74261EB57310CFB0EF7B7
:100D2000B0EBC70072EB57720CFB08F734BFA2EBB5
:100D3000C702B2EBC70261EB577115EB4C254FEAC6
:100D4000816141EA92114FEA82624FEAD13742EA69
:100D5000901206FB07FC44F100044FEA80604FEA62
:100D60001C4C0CFB0BF7D21B03FB0CF761EB0701D0
:100D70000CFB0EF7B0EB074072EB17420CFB08F7C9
:100D800034BFA2EB0742B2EB074261EB174115EB10
:100D90001C154FEA813141EA92414FEA823242EA20
:100DA00090424FEA80304FEA0C7644F1000448EA62
:100DB00003434EEA0B484FF0000EB2EB080C71EB08
:100DC000030724BF624639464EEB0E0E4FF0000B70
:100DD0000018524149414BEB0B0BB2EB080C71EB85
:100DE00003077BF1000B24BF624639464EEB0E0E23
:100DF0004FF0000B0018524149414BEB0B0BB2EB8B
:100E0000080C71EB03077BF1000B24BF62463946E7
:100E10004EEB0E0E51EA020718BF46F0010616EB24
:100E20000E7655F1000254F1000103D5BDE88901A9
:100E3000BDE80088BDE88901BDE80048B619524107
:100E400041EB0101A3F10103704780807F7E7D7C2F
:100E50007B7A7978777676757473727171706F6E4C
:100E60006E6D6C6C6B6A6A696868676666656464F7
:100E7000636362616160605F5F5E5E5D5D5C5C5B81
:100E80005B5A5A59595858575756565555555454F0
:100E9000535352525251515050504F4F4F4E4E4D4E
:100EA0004D4D4C4C4C4B4B4B4A4A4A49494948489A
:100EB00048474747474646464545454444444443DA
:100EC00043434342424242414141002B9C4630D47D
:100ED00077002BD01CB54FEA370703B44FF0100052
:100EE0004FF01001BAF1000F06D0BCF1000FDCBFCB
:100EF00040F0080040F008014FF000000FBCBDE8D2
:100F000010400BF1010BBBF1010F08BF5FEA17079F
:100F100022BF12F1010211F101014FF0004143F132
:100F2000000300F0004043EA00007047F9D357087F
:100F3000D0E746EA064613F1400F4FEA16461FDD9A
:100F400013F1200FDFBF16430A46002120335B4216
:100F5000BED0C3F1200746EA064602FA07F74FEA79
:100F6000164646EA0706C3F1200722FA03F201FA01
:100F700007F721FA03F14FF0000342EA0702A7E75F
:100F800046EA020646EA06464FEA164646EA0106E1
:100F9000BCBF46EA0646360C4FF000034FF0000295
:100FA0004FF0000194E72DE9804C9A46934670B4C7
:100FB00091E8380007C831EA400C48BF34EA430CD6
:100FC00003D5FFF7E6FDFFF780FFF0BCBDE8008C1E
:100FD0002DE9804C9A46934670B491E8380007C8D2
:100FE00010F0804F08BF13F0804F03D100F005F8D8
:100FF000FFF76BFFF0BCBDE8008C20F07F4780EA74
:10100000030023F07F4C07EB0C03A3F57C5300F0A7
:101010000040A3F1FE0392F0000F00F0B38095F0C2
:10102000000F00F077802DE901494FEA11404FEAA7
:10103000144621EA004800FB06FC24EA064708FBA8
:1010400006F607FB08F800FB07F718EB06484CEB21
:10105000164C4FEA124B18EB07484FEA15464CEB7B
:10106000174022EA0B4E0BFB06FC25EA06470EFB57
:1010700006F607FB0EFE0BFB07F71EEB064E4CEBCE
:10108000164C4FF000061EEB074E4CEB174B18EBBF
:101090000B0840F1000018EB0E0B58EB000840F174
:1010A00000008F1A4FF000013CBFC943661B14BFFC
:1010B000B5EB040C00213CBFC943F61B4FEA1744B3
:1010C0004EEA8E0E27EA04454FEA1C4704FB0762EE
:1010D0002CEA074C05FB07F70CFB05F604FB0CFCA0
:1010E00016EB074642EB174216EB0C4642EB1C424E
:1010F0001BEB060658EB0202414146EA9E0601D56B
:10110000BDE80189B619524141EB0101A3F1010388
:10111000BDE801894FEA14454FEA114724EA054624
:1011200021EA074C05FB07F406FB07F70CFB06F169
:1011300005FB0CFC11EB074144EB17444FEA124747
:1011400011EB0C4144EB1C4422EA074C05FB07F26F
:1011500006FB07F70CFB06F605FB0CFC16EB074637
:1011600042EB174216EB0C4642EB1C456A1854F151
:10117000000148BF7047B619524141EB0101A3F18C
:101180000103704795F0000F37D04FEA11424FEA44
:10119000144721EA024624EA074C02FB07F106FB4A
:1011A00007F70CFB06F402FB0CFC14EB074441EBC5
:1011B00017414FEA154714EB0C4441EB1C4125EA5B
:1011C000074C02FB07F506FB07F70CFB06F602FBD4
:1011D0000CFC16EB074645EB174516EB0C4645EBAA
:1011E0001C42121951F1000148BF7047B619524113
:1011F00041EB0101A3F1010370474FEA14454FEAA7
:10120000114724EA054621EA074C05FB07F106FBD6
:1012100007F70CFB06F24FF0000605FB0CFC12EB87
:10122000074241EB174112EB0C4251EB1C4148BF06
:101230007047921841EB0101A3F101037047FEE7EB
:101240002DE9F04100F08CF8002832D000F03AF897
:10125000194C207000F036F8607000F033F8A07080
:1012600000F030F8E07000F02DF8207126786578F5
:101270000246A17870194318E0780344DBB2637129
:10128000934216D10D4F7F2903D902F07DF80C4906
:1012900004E040EA012002F077F8394601F096FFB9
:1012A000A06045EA062002F06FF8394601F08EFF93
:1012B000E060BDE8F0810000000000200000204157
:1012C000000020C12DE9F04700254FF0010A4FF43E
:1012D0000079DFF88480214C00F0DAF9E06300F057
:1012E000D7F94F46206402E000F0D2F92064394675
:1012F000404600F0BBF920B9D4E90F01801C8842B8
:10130000F2D8282001F0ACFEB9463946474640469F
:1013100000F0ACF90028C5F107010AFA01F019D074
:101320003043C6B200F0B4F9C4F83C0000F0B0F9A4
:1013300020644946384600F099F920B1D4E90F01FC
:10134000801C8842F2D86D1CEDB2082DC4D3304603
:10135000BDE8F0878643E5E7000C0140000000206F
:101360002DE9FF41002502204FF400744FF00108E1
:10137000CDE90250224ECDE900482F46694630465D
:1013800000F084F800222146304600F07CF940F25B
:10139000145001F065FE01222146304600F073F939
:1013A0001E2001F05DFECDE901786946304600F06F
:1013B0006DF8282001F054FE2146304600F056F921
:1013C00040B9502001F04CFE2146304600F04EF965
:1013D00000B1012500F05CF90A4FF86300F058F9FC
:1013E00038642146304600F041F920B1D7E90F01B9
:1013F000801C8842F2D804B02846BDE8F081000085
:10140000000C01400000002070474FF4806000F0A5
:1014100031B8802000F02EB870B5044600F038F9DD
:101420000546601C02D004480078044400F030F9FE
:10143000401BA042FAD370BD4C00002070B5054699
:1014400000F026F90A4CA16B411AC8290BD34FF0C2
:101450007C51A063802D07D0B5F5806F03D1606A01
:1014600002F072F8606270BD606A01F04DFEF9E74B
:1014700000000020044910B50A68024202D008604A
:10148000FFF7DCFF10BD0000140401402DE9F84F08
:10149000DFF8B8910024A9F1040B23460F2709F1C6
:1014A000040AABF1040EC9E00125A5402A40AA4276
:1014B0007DD1674ED1F804C0ACEB0608B44532D0FC
:1014C00014DCBCF1030F3AD009DCBCF1000F2AD0C8
:1014D000BCF1010F1CD0BCF1020F31D11DE0BCF1F9
:1014E000110F17D0BCF1120F2AD119E0B8F5881FDF
:1014F00019D006DCB8F5803F15D0B8F5801F1FD194
:1015000011E0B8F5001F0ED0B8F5041F18D10AE09D
:10151000CB6815E0CB681B1D12E0CB6808330FE0E9
:10152000CB680C330CE08B682BB1012B4FF0080318
:1015300003D0456104E0042302E0056100E00023DC
:10154000FF2A01D8064601E000F104064FEA8405AF
:1015500001D9A5F12005D6F8008007FA05FC28EA94
:101560000C0803FA05F548EA0508C6F800804D683E
:10157000ED0062D5374DAE6946F00106AE61AD694A
:1015800024F0030605F001050095334D06EB050C2C
:10159000DCF80850A607360F07FA06F825EA080512
:1015A000DFF8B880404503D14FF0000817E044E071
:1015B000DFF8AC80404502D14FF001080FE0DFF8C2
:1015C000A480404502D14FF0020808E0DFF898807F
:1015D000404502D14FF0030801E04FF0040808FA3B
:1015E00006F848EA0508CCF808804D68D9F800608C
:1015F000ED024D4601D5164300E096432E604D683E
:10160000DAF80060AD02554601D5164300E0964376
:101610002E604D68DBF80060AD035D4601D51643D2
:1016200000E096432E604D68DEF80060ED037546DD
:1016300001D5164300E096432E60641C0D682A46CF
:10164000E5407FF431AFBDE8F88F000008040140A9
:10165000000011100010024000000140000801408D
:10166000000C014000100140001401408068084057
:1016700000D001207047C26821EA02030A4043EA11
:101680000241016170470AB1016170470904FBE73B
:1016900001488068704700004C00002070B50400CD
:1016A00025D094F83D00002520B984F83C50204610
:1016B00000F04EF9242084F83D002068016821F0F4
:1016C000010101602068016841F400410160206867
:1016D000016821F40041016000F096FA4D4A61680A
:1016E000914201D84C4900E04C49884201D2012086
:1016F00070BD4B492368B0FBF1F15E6826F03F06F0
:101700000E435E606368934206D94FF49673594363
:101710004FF47A73B1FBF3F12368491C1E6A26F07B
:101720003F06314319626168914210D84900401E5A
:10173000B0FBF1F2521CC2F30B02042A01D20420C6
:1017400022E0B0FBF1F0401CC0F30B001CE0A268EB
:10175000F2B301EBC10303EB0116431EB3FBF6F337
:101760005B1C43F480431B0549D092B301EBC102DB
:1017700002EB0111401EB0FBF1F0401CC0F30B0066
:1017800040F4804040F400402168CA694CF6FF7381
:101790009A431043C861D4E90710014320680268E6
:1017A00022F0C00211430160D4E903010143206823
:1017B000826848F2FF339A4311438160D4E90501FE
:1017C00008432168CA6822F0FF021043C86001E0A4
:1017D0000EE016E02068016841F001010160256417
:1017E000202084F83D00256384F83E50002070BD21
:1017F00001EB4106431EB3FBF6F35B1CB3E701208C
:10180000C2E701EB4101401EB0FBF1F0401CC0F308
:101810000B00B7E7A086010080841E0000093D0090
:1018200040420F002DE9F84F1F4690468A46044675
:10183000DDF82890FFF72CFF054694F83D0020289E
:101840007FD11923012240492046009500F070FF06
:10185000002876D194F83C00012872D0012084F849
:101860003C0020680168C90703D1016841F001010B
:1018700001602068016821F400610160212084F882
:101880003D00102084F83E0000262664C4F8248021
:101890006785608D20852D48E0622B464A4651467B
:1018A000204600F0CBFE90B9206841698069009025
:1018B00036E02A464946204600F0E0FF50B1206C51
:1018C000042804D12068016841F4007101600120FE
:1018D000BDE8F88F606A216800780861606A401C82
:1018E0006062618D491E6185218D491E89B2218505
:1018F00022685369DB435B070BD451B10078106158
:10190000606A401C6062608D401E6085208D401EB4
:1019100020852A464946204600F0DEFE0028CED12A
:10192000208D0028C5D154F83D0B016841F40071A9
:101930000160202004F81E09E67766770020C7E7DB
:10194000FFE70220C4E70000020010000000FFFFD4
:1019500010B586B0002100910191029103910068B9
:101960000F4988421AD10F4CA06940F00800A061CD
:10197000A069694600F008000490C0200090122081
:101980000190032003900848FFF780FDE06940F4D0
:101990000010E061E06900F40010049006B010BD92
:1019A0000054004000100240000C014002488168D1
:1019B00002781144816070474C000020074810B540
:1019C000016841F010010160032000F075F80F205C
:1019D00000F006F800F024F8002010BD00200240BE
:1019E00070B50D4D04464FF47A712878B1FBF0F0D4
:1019F0000A490968B1FBF0F000F0CCFA48B9102CA4
:101A000007D200222146501E00F036F800206C60FC
:101A100070BD012070BD00004C0000205800002067
:101A20000C4808B5816941F001018161816901F0CB
:101A300001010091C16941F08051C161C06900F0AC
:101A4000805000900448416821F0E06141F000714D
:101A5000416008BD0010024000000140002809DB81
:101A600000F01F02012191404009800000F1E020B8
:101A7000C0F8001170470000F0B40E4B1B680C4614
:101A8000C3F30223C3F10705042D00D90425191D52
:101A9000072901D2002300E0DB1E012606FA05F12A
:101AA000491E214099409E40761E16403143F0BCAD
:101AB00001F098B90CED00E0064900F00702086853
:101AC0004FF6FF03184040EA0220034A1043086023
:101AD000704700000CED00E00000FA052DE9F0472A
:101AE0000F46050061D0434E306800F00700B84251
:101AF00009D2306820F0070038433060306800F0C9
:101B00000700B84251D128683B4C810712D54007E5
:101B100003D5606840F4E06060602878000703D572
:101B2000606840F4605060606068A96820F0F00070
:101B3000084360602878C00728D06868012810D062
:101B40002168022810D0890700292EDA616821F067
:101B5000030101436160FFF79BFD804641F2883934
:101B60000DE021688903EFE78901EDE7FFF790FDBC
:101B7000A0EB0801494502D90320BDE8F087606861
:101B8000696800F00C00B0EB810FEFD1306800F015
:101B90000700B8420BD9306820F0070038433060A6
:101BA000306800F00700B84201D00120E5E728784E
:101BB000400705D56068E96820F4E060084360608C
:101BC0002878000706D56068296920F4605040EA4B
:101BD000C100606000F028F86168084AC1F3031191
:101BE000515CC8400649086006480068FFF7F8FEE7
:101BF0000020C2E7002002400010024048360008E2
:101C00005800002050000020044805490068496839
:101C1000044AC1F30221515CC840704758000020BB
:101C200000100240583600080E4A51680E4801F074
:101C30000C03042B11D0082B0FD10C48C1F38343A4
:101C4000C903C05C0AD55168084AC1F34041921EDD
:101C5000515C054A5043B0FBF1F0704704494843DA
:101C6000704700000010024000127A003836000869
:101C700000093D002DE9F84F040070D02078C04DD8
:101C8000C00749D06868C0F38100012807D06868A0
:101C9000C0F38100022809D16868C00306D528680E
:101CA000800339D560680028E7D035E06068B0F57A
:101CB000803F0BD010B1B0F5A02F11D0286820F4D0
:101CC00080302860286820F4802002E0286840F4F2
:101CD00080302860606890B1FFF7DAFC06460AE0C1
:101CE000286840F480202860F0E700BFFFF7D0FCB0
:101CF000801B642873D828688003F7D50CE0FFF7B1
:101D0000C7FC064605E000BFFFF7C2FC801B642845
:101D1000F0D828688003F7D420789A4E80074FF0D7
:101D200001094FF0000839D5686810F00C0F07D092
:101D30006868C0F38100022809D16868C00306D42E
:101D40002868800714D52069012808D110E020698F
:101D5000B0B1C6F80090FFF79BFC074605E00AE12A
:101D6000FFF796FCC01B0228C4D828688007F7D567
:101D70002868616920F0F80040EAC10028600DE0A1
:101D8000C6F80080FFF784FC074604E0FFF780FCFC
:101D9000C01B022823D828688007F7D420780007C2
:101DA0002CD57948A169D9B1C0F80090FFF770FC33
:101DB000074604E0FFF76CFCC01B02280FD8686AD6
:101DC0008007F7D571484FF4FA510068B0FBF1F085
:101DD000009000BF0098411E0091FAD20EE080E012
:101DE000C0F80080FFF754FC074604E0FFF750FC02
:101DF000C01B022875D8686A8007F7D4207840078E
:101E000060D5E8690027C00008D4E86940F0805038
:101E1000E861E869012700F0805000905C480168A3
:101E2000C90513D40168834641F480710160FFF74E
:101E30002FFC824606E000BFFFF72AFCA0EB0A0059
:101E400064284ED8DBF80000C005F5D5E06801280D
:101E50000AD008B1052813D0286A20F001002862B2
:101E6000286A20F0040002E0286A40F0010028629D
:101E7000E06841F2883B98B1FFF70AFC82460BE02C
:101E8000286A40F004002862EEE700BFFFF700FC7C
:101E9000A0EB0A0159455AD8286A8007F6D50CE00C
:101EA000FFF7F6FB824605E0FFF7F2FBA0EB0A0125
:101EB00059454CD8286A8007F6D41FB1E86920F04C
:101EC0008050E861E06988B36968C1F38101022943
:101ED00044D00228C6F8608004D0FFF7D9FB04463E
:101EE00038E034E0FFF7D4FB074604E0FFF7D0FB0F
:101EF000C01B02282BD828688001F7D4206AB0F5CF
:101F0000803F05D16868A16820F40030084368600C
:101F1000D4E908010843696821F474110843686032
:101F2000C6F86090FFF7B4FB044606E025E000BF6A
:101F3000FFF7AEFB001B022809D828688001F7D5FF
:101F40001BE000BFFFF7A4FB001B022802D90320FF
:101F5000BDE8F88F28688001F4D40EE00128F7D09E
:101F60006868226A00F48031914204D1616A00F409
:101F70007010884201D00120EAE70020E8E7000065
:101F800000100240000042428004424258000020FB
:101F90000070004010B5401EB0F1807F01D30120D9
:101FA00010BD4FF0E02460610F21601700F01AFFB0
:101FB0000020A06107202061002010BD70477047FD
:101FC00070B590F83C20012A26D0012480F83C40CE
:101FD000022280F83D2003685A689D6822F070064E
:101FE0000A6832435A600D4B02689A4208D0B2F137
:101FF000804F05D00A4B9A4202D00A4B9A4204D134
:10200000496825F080031943916080F83D40002124
:1020100080F83C10084670BD022070BD002C0140C5
:10202000000400400008004010B5040003D094F8FC
:102030003D0010B107E0012010BD002084F83C00F5
:10204000204600F01FF8022084F83D00211D206882
:1020500000F098FD012084F8460084F83E0084F8E2
:102060003F0084F8400084F8410084F8420084F87E
:10207000430084F8440084F8450084F83D000020C3
:1020800010BD000008B5154A0168154891420ED1EF
:10209000816941F4006181618069002200F400607F
:1020A000009011461920FFF7E7FC192010E00D4AB7
:1020B000914211D1C16941F00201C161C0690022A0
:1020C00000F00200009011461D20FFF7D5FC1D20F6
:1020D000BDE80840FFF7C2BC08BD0000002C01406D
:1020E000001002400004004090F83D10012901D08A
:1020F00001207047022180F83D1000680B4988429A
:1021000008D0B0F1804F05D00949884202D0094972
:10211000884204D1816801F00701062903D00168D3
:1021200041F001010160002070470000002C0140D7
:10213000000400400008004090F83D10012901D043
:1021400001207047022180F83D100168CA6842F002
:102150000102CA6000680B49884208D0B0F1804F84
:1021600005D00949884202D00849884204D18168D3
:1021700001F00701062903D0016841F00101016067
:1021800000207047002C014000040040000800407F
:1021900070B5044690F83C000025012817D00126B0
:1021A00084F83C60022084F83D002068826822F0B8
:1021B000770222F47F4282600868502838D00DDC14
:1021C00020284FD005DC90B3102811D14AE002201E
:1021D00070BD302846D040280AD13BE060282FD07F
:1021E00070280DD0B0F5805F03D0B0F5005F12D03D
:1021F000012584F83D60002084F83C00284670BD2D
:10220000CB68D1E90121206800F0FFFC20688168DB
:1022100041F0770109E0CB68D1E90121206800F0A5
:10222000F4FC2068816841F480418160E1E719E0B5
:10223000CA684968206800F09DFD5021206806E0CA
:10224000CA684968206800F0A6FD6021206800F097
:10225000E6FCCEE7CA684968206800F08BFD4021A3
:102260002068F4E7226801461046F0E7704770B531
:102270000446006801694FF00005C943890715D479
:10228000C168C943890711D4E91E01610120207783
:10229000206880698007204602D0FFF7E7FF04E04E
:1022A00000F0BCF8204600F05FF92577206801694E
:1022B000C943490717D4C168C943490713D46FF00C
:1022C00004010161022020772068806910F4407FBA
:1022D000204602D0FFF7CAFF04E000F09FF8204636
:1022E00000F042F9257720680169C943090716D42F
:1022F000C168C943090712D46FF0080101610420C5
:1023000020772068C0698007204602D0FFF7AEFF23
:1023100004E000F083F8204600F026F925772068D5
:102320000169C943C90617D4C168C943C90613D492
:102330006FF010010161082020772068C06910F457
:10234000407F204602D0FFF791FF04E000F066F8DE
:10235000204600F009F9257720680169C943C907BB
:1023600008D1C168C943C90704D1891E016120464B
:1023700000F04AF920680169C943090609D4C16817
:10238000C943090605D46FF0800101612046FFF7BB
:1023900015FE20680169C943490609D4C168C943CB
:1023A000490605D46FF040010161204600F02DF987
:1023B00020680169C94389060BD4C168C9438906ED
:1023C00007D46FF0200101612046BDE87040FFF79F
:1023D000F6BD70BD00B585B000210091019102915C
:1023E00003910068B0F1804F11D10A48816941F032
:1023F000040181618069694600F0040004900120B5
:1024000000900220019003900348FFF73FF805B0C9
:1024100000BD00000010024000080140704770B588
:10242000044690F83C0000260D4601280FD00120FC
:1024300084F83C006AB1042A1DD0082A2FD00C2A47
:102440003FD00126002084F83C00304670BD0220B9
:1024500070BD206800F0ECFB2068816941F0080144
:1024600081612068816921F00401816120688169AE
:102470002A69114311E0206800F002FC206881699C
:1024800041F4006181612068816921F4806181618A
:10249000206881692A6941EA02218161D2E72068C6
:1024A00000F01AFC2068C16941F00801C161206890
:1024B000C16921F00401C1612068C1692A69114321
:1024C00011E0206800F034FC2068C16941F400612B
:1024D000C1612068C16921F48061C1612068C1695E
:1024E0002A6941EA0221C161ACE710B5040003D0BA
:1024F00094F83D0010B107E0012010BD002084F8E1
:102500003C00204600F01EF8022084F83D00211D0A
:10251000206800F037FB012084F8460084F83E0074
:1025200084F83F0084F8400084F8410084F84200B9
:1025300084F8430084F8440084F8450084F83D00A2
:10254000002010BD08B50068B0F1804F08D10548E3
:10255000C16941F00101C161C06900F00100009052
:1025600008BD0000001002407047000010B504468E
:10257000022249B104290ED0082913D094F8410051
:10258000012816D0012010BD94F83E000128F9D191
:1025900084F83E200FE094F83F000128F2D184F83F
:1025A0003F2008E094F840000128EBD184F8402057
:1025B00001E084F841200122206800F019FB0F4956
:1025C0002068884203D1426C42F400424264206891
:1025D000884208D0B0F1804F05D00949884202D026
:1025E0000849884204D1816801F00701062903D017
:1025F000016841F001010160002010BD002C014084
:10260000000400400008004070477047FEE7016882
:102610004A69D24352050FD46FF480624A610021A7
:1026200040F8301F202242738173026942F0040295
:10263000026101730120704700207047F8B504461D
:10264000C06A1E460D461746082807D0012805D047
:1026500010F5803F02D0206B122804D12068016859
:1026600041F480710160134600224FF001112046B1
:10267000009600F05DF840B120680068C00502D502
:102680004FF4007020640320F8BD2069B0F5804F3E
:102690000ED00620216800EAD51040F0F000086155
:1026A00033463A460B49204600F08AF878B902E0F2
:1026B00005F0FE0000E0E8B22168086105493346F4
:1026C0003A46891F204600F07BF80028DCD0012024
:1026D000F8BD00000800010070B516460D4604461E
:1026E0001EE02046FFF793FF08B1012070BD681C73
:1026F00016D0FEF7CDFF801BA84200D885B9206810
:102700004069C04340070BD5002044F8300F20211A
:102710006173A073216941F0200121612073E4E716
:1027200020684069C0434007DBD4002070BD000032
:102730002DE9F047984617460D460446C1F3074673
:10274000DDF820902AE000BFB8F1FF3F26D0FEF769
:102750009FFFA0EB0901414502D8B8F1000F1DD140
:102760002068012E16D0806925EA00000004000CC4
:1027700012D00020B84211D1002044F8300F20219F
:102780006173A073216941F0200121612073012050
:10279000BDE8F0874069E7E70120EBE72068012EFC
:1027A0000AD0806925EA00000004000C06D0002051
:1027B000B842C9D00020EBE74069F3E70120F7E712
:1027C0002DE9F047984616460D4604464FF000099D
:1027D0004FF0200AC1F3074723E020684069C04357
:1027E000400515D42068016841F40071016021683A
:1027F0006FF480604861C4F8309084F83DA084F89C
:102800003E90216C41F00401216484F83C9021E069
:10281000701C06D0FEF73CFFA0EB0800B04203D8C6
:1028200016B1012F1FD021E02068012F15D080693B
:1028300025EA00000004000C18D000BF44F8309FC7
:1028400084F80DA084F80E90216941F020012161E7
:1028500084F80C900120BDE8F087406925EA00006B
:102860000004000CEAD12068406901E0206880691A
:1028700025EA00000004000CAFD1ECE770B5164665
:102880000D4604461EE02046FFF7C1FE08B10120B8
:1028900070BD681C16D0FEF7FBFE801BA84200D856
:1028A00085B920684069C04300060BD5002044F874
:1028B000300F20216173A073216941F02001216153
:1028C0002073E4E720684069C0430006DBD40020A1
:1028D00070BD000030B585B0002003901D488169AF
:1028E00041F020018161816901F020010491816939
:1028F00041F004018161816901F004010491816961
:1029000041F0080181618069134C00F008000490D7
:10291000802001258DE8310069461048FEF7B6FD9C
:10292000A8028DE8310069460D48FEF7AFFD002290
:1029300011461720FFF7A0F81720FFF78FF80022A5
:1029400011462820FFF798F82820FFF787F805B0F0
:1029500030BD0000001002400000111000080140CE
:10296000000C014010B586B0002412480094019478
:102970000294039404940E49059401604721C0E930
:1029800001144FF6FF71C0E9031444618461FFF73D
:102990004BFB4FF48050009069460648FFF7F8FB68
:1029A000049404A903480594FFF70AFB06B010BD80
:1029B000002C0140B000002010B58AB0002407941C
:1029C0001C2168460894FDF7A6FC11484FF0804191
:1029D00001604721C0E901144FF47A71C0E9031482
:1029E0008461FFF782FD079407A909480894FFF75F
:1029F000E7FA6020CDE90004029400226946044809
:102A00000494FFF70CFD0248FFF7E4FC0AB010BD88
:102A1000F800002010B586B00024124800940194FC
:102A20000294039404940E49059401604721C0E97F
:102A3000011442F20F71C0E903148461FFF7F4FA44
:102A40004FF48050009069460648FFF7A1FB0494BC
:102A500004A904480594FFF7B3FA06B010BD0000BE
:102A60000004004040010020FEE7FEE77047704789
:102A7000FEF79CBF30B58FB028216846FDF74BFCB0
:102A800014210AA8FDF747FC01210804CDE9001034
:102A90000024029402250491CDE907504FF4E01080
:102AA00009906846FFF7E6F80F20CDE90A056802AD
:102AB000CDE90C4002210AA80E94FFF70FF80FB0E1
:102AC00030BD704710B50548FFF7D1FBBDE8104099
:102AD0004FF400510248FEF7CEBD0000B0000020C8
:102AE000001001402DE9F041FEF7AAFB234CA1683C
:102AF000606A00F029FD064660613146A06A00F078
:102B000057FC6064616B07468846304600F050FC15
:102B1000A16C00F0F9FAE061A06405463046A169B5
:102B200000F012FD414600F051FB01462062206B8F
:102B300000F03EFC80462946E06A00F039FC394648
:102B400000F0E2FA414600F0DFFA00F001FCA66175
:102B500022694FF47A718A4202DD0846216103E05E
:102B6000002800DA00202061054909684863BDE8B3
:102B7000F04103484830FFF77ABB00000000002016
:102B8000F8000020F0B50268164B174C174D4FF0B7
:102B90008047984205D0B84203D0A04201D0A84255
:102BA00003D122F070064A683243984205D0B842F9
:102BB00003D0A04201D0A84203D122F44074CA68D5
:102BC00022434C6922F08002224302608A68C2627A
:102BD0000A688262984201D1096901630121416159
:102BE000F0BD0000002C014000040040000800403F
:102BF00010B501F01F030121046A99408C4304625F
:102C0000016A9A401143016210BD10B5846842EA1E
:102C1000032224F47F440A432243826010BD826869
:102C200022F070020A4342F0070181607047000001
:102C300030B5036A026A22F00102026242688469C6
:102C400024F073050C682C4323F002058B682B439A
:102C50000A4DA8420BD123F00805CB6822F440723C
:102C60002B434D6923F0040315438A692A434260CC
:102C7000846149684163036230BD0000002C01405B
:102C800030B5026A036A23F0100303624368846963
:102C90000D6824F4E64444EA05248D6822F02002FD
:102CA00042EA05120B4DA8420ED1CD6822F08002F7
:102CB00042EA05124D6923F4406343EA85038D69B6
:102CC00022F0400243EA85034360846149688163DE
:102CD000026230BD002C014030B5036A026A22F462
:102CE000807202624268C46923F4007324F07305A1
:102CF0000C682C438D6843EA05230C4DA8420ED185
:102D0000CD6823F4006343EA05234D6922F4405261
:102D100042EA05128D6923F4806342EA051242609B
:102D2000C4614968C163036230BD0000002C0140EA
:102D300030B5046A026A22F4805202624268C369B2
:102D40000D6823F4E64343EA05238D6824F4005418
:102D500044EA0534064DA84204D14D6922F480426C
:102D600042EA85124260C36149680164046230BD71
:102D7000002C014010B5036A046A24F001040462C7
:102D8000846924F0F00444EA021423F00A020A439E
:102D90008461026210BD10B5036A046A24F0100455
:102DA0000462846923F0A00324F4704444EA0232EC
:102DB00043EA01118261016210BDFEE7490050EA59
:102DC000C12018BF04204A0D18BF40F0010040F296
:102DD000FF72B2EB515F08BF40F00200012808BF4C
:102DE000052070470907090E002804DB00F1E020E8
:102DF00080F80014704700F00F0000F1E02080F828
:102E0000141D704730380A2801D201207047002075
:102E1000704710B5802000F051F80024202000F009
:102E20006DF8641C462CF9DB10BD10B53220FEF79E
:102E3000F3FA302000F042F80520FEF7EDFA3020DA
:102E400000F03CF80120FEF7E7FA302000F036F8F9
:102E50000A20FEF7E1FA202000F030F80A20FEF701
:102E6000DBFA282000F02AF80120FEF7D5FA082026
:102E700000F024F80120FEF7CFFA012000F01EF840
:102E80000120FEF7C9FA0120FEF7C6FA062000F07D
:102E900015F80120FEF7C0FABDE810400C2000F044
:102EA0000DB810B1012805D102E041F0800101E028
:102EB00041F0C001C8B200F001B800001CB500F03C
:102EC000F00141F00C028DF8042041F008010001EE
:102ED0008DF8051040F00C018DF8061040F0080048
:102EE0008DF8070064200090042301AA4E210248B7
:102EF000FEF798FC1CBD00005C0000201CB500F033
:102F0000F00141F00D028DF8042041F009010001AB
:102F10008DF8051040F00D018DF8061040F0090005
:102F20008DF8070064200090042301AA4E21024876
:102F3000FEF778FC1CBD00005C00002010B50446C4
:102F400002E0641CFFF7DAFF20780028F9D110BDF9
:102F50008CB0FEF733FDFFF78DFDFFF7BBFCFFF7ED
:102F600001FD334831494FF48042016031494160ED
:102F700000218160C0E9031241618161C161016288
:102F8000FEF78CFBFFF718FDFFF744FD28480021F2
:102F90009C30FFF7EBFAFFF748FF25485430FFF766
:102FA000A3F82348E430FFF7C7F8234C4FF42F75FC
:102FB000A06800F07DF802460B4620A16846FDF7A8
:102FC0000FF9E06800F074F802460B461DA108A84E
:102FD000FDF706F9606A00F06BF802460B4617A190
:102FE00004A8FDF7FDF8FFF714FF00210120FFF70B
:102FF00058FF16A0FFF7A2FF09210120FFF751FF9C
:1030000004A8FFF79BFF09210020FFF74AFF68464D
:10301000FFF794FF00210846FFF743FF0EA0FFF7DC
:103020008DFF2846FEF7F8F9C2E700000054004083
:103030005C000020A086010000000020252E3266E2
:1030400020430000252E3266000000007365747076
:103050006F696E740000000054656D700000000020
:10306000044900220B685A6209684A6A8242FCD30A
:1030700070470000B000002010B500290AD0087881
:10308000002807D005487844FDF7CAFC002801D085
:10309000002010BD0248784410BD00008E060000DC
:1030A000860600000808A0F500114FEA31017047BC
:1030B00043004FEAD30C4FEA3C0C43401FBF40078C
:1030C0000CF1605113F0FE4F70471CF0006F03D1FC
:1030D00000200CF0004170470CF0004343EA5070B0
:1030E00010B540EACC0000F0E4F900BF0000009207
:1030F0004FEA0001FFF7D6BF4FF000414FF000004C
:10310000A1F500217047000090EA010F48BF81F04F
:10311000004100F12082421A3CBF801A89184FEA10
:10312000D0524FF07F4C1CEA410FA2EBD15318BF95
:103130009CEA026F00F03B804FF0004C4CEA00200C
:103140004CEA012121FA03FC10EB0C0C1ED202F117
:10315000FF325FEA1C2040EBC25038BF70471CF0C2
:103160007F0F4FEA400C18BFBCF17F4F38BF70474C
:10317000C3F12003994008BF20F00100BCF17F4F4C
:1031800038BF7047A0F1C04000F0D9B94FEA3C0009
:10319000000A40EBC25028BF1CF0FF0F4FEA400C62
:1031A000E6D018BFBCF17F4F38BF7047EAE79CEA12
:1031B000026F05D010EA5C0F08BF00F000407047B6
:1031C00010B500F076F900BF64FBBE3E4FF47F0CF3
:1031D0001CEAD0121EBF1CEAD11392EA0C0F93EA2C
:1031E0000C0F00F0858090EA010F48BF42F4807216
:1031F00040F4000C41F400002CF07F4120F07F40AF
:1032000000B58142A2EB03020FF2081CACEB504E5A
:10321000C0F100009EF800E04FEA4E0E00FB0EFCED
:1032200038BF49004FEA2C1C02F5FA020CFB0EF3E2
:103230004FEACE1E4FEA112C4FEAC1210EEB635E1E
:1032400042EB22420EFB0CFC4FEA1C5300FB031125
:103250004FEA112C4FEA01310EFB0CFC4FEADC4C1B
:1032600000FB0C11C14228BF09184CEB03335DF879
:1032700004EB10EB410143EBC250B2F57C0F38BFB9
:10328000704729D512F0F00F1CBF00F1C04000F0CC
:1032900000407047008182838485868788898B8C73
:1032A0008D8E8F919293959697999A9C9D9FA0A2AF
:1032B000A3A5A7A8AAACAEB0B2B3B5B7B9BCBEC0FF
:1032C000C2C5C7C9CCCED1D4D7D9DCDFE2E6E9ECA0
:1032D000F0F3F7FAFE0000004FEA400C0CF1807C9E
:1032E000BCF17E4F28BF7047B0F1C04000F027B955
:1032F00090EA010F0CEAD11348BF42F48072624594
:1033000038BF634507D213F47F0F16D080EA01005F
:1033100000F00040704710B500F0CBF8097EFC3E8D
:1033200000F005B880EA010000F00040704780EA34
:10333000010000F0004000F002B912F47F0F04BF5A
:103340000248704780EA010000F0F9B80000C07F31
:1033500041000B0ED3F19E0208D950F400034FEA4E
:10336000032323FA02F048BF4042704710B500F033
:10337000A0F800BF49922480002070476FF00042FF
:1033800082EA200070470000B0FA80F310FA03F2DE
:10339000C3F19D030AD0D90501EB1220530638BFB3
:1033A000704700F1010008BF20F0010070470000E5
:1033B0004FF47F0C1CEAD0121EBF1CEAD11392EA14
:1033C0000C0F93EA0C0F00F0478090EA010F48BF02
:1033D00042F480724FF0004C4CEA00204CEA01218C
:1033E00002EB0302A0FB0113A2F50002002918BFA3
:1033F00043F001035B0028BF4FEA330342EB224254
:103400005FEA132C4CEBC2502EBFBCEB436FB2F5FE
:103410007C0F70474FEA036CBCF1004F08BF20F0EF
:103420000100B2F57C0F38BF70470BD582F0FF0268
:1034300012F5803FC8BF704700F1C040D8BF00F010
:103440000040704700F5000C5FEA4C0C48BF704725
:10345000B0F1C04000F073B890EA010F0CEAD1134C
:1034600048BF42F48072624538BF634504D280EAA7
:10347000010000F00040704710B500F01AF800BFDE
:103480008900013E00F007B800F009B85FEA410C7E
:103490005FEA1C6C08D080EA010000F050B85FEAD7
:1034A000400C5FEA1C6CF6D14FF00040A0F58000A4
:1034B00070470EF1020E2EF0030E5EF8044B24420C
:1034C00004D44FEA4102B2F17F4F11D84FEA4003D2
:1034D000B3F17F4F0CD80ED14FEAD07CB2F17F4FC1
:1034E0000CEB4C0C0CF1020C08BF4CEBD17C04E053
:1034F0004FF0080C01E04FEAD17C0CEB4C0324FAAE
:1035000003F404F00704B4F1040C06D20EEB840CAF
:10351000BDE810404CF0010C6047DFE80CF00708F4
:1035200002024FF00040A0F5800010BD08464200A6
:1035300018BFD2F1807288BF00F0004010BDFF219B
:1035400041EAD050C005704790EA010F48BF81F0B2
:1035500000413FF5E0AD421A04D882F00042A0EBF2
:10356000020011444FEAD0524FF07F4C1CEA410F49
:10357000A2EBD15318BF9CEA026F4AD04FF0004C27
:103580004CEA00204CEA012121FA03FCB0EB0C0CC0
:103590000FD412F0FE0F36D05FEA4C001DD500129A
:1035A00040EBC25038BF70471CF03F0F18BF704748
:1035B0000BE0A2F101025FEA1C2040EBC25038BFD1
:1035C00070471CF07F0F18BF7047C3F1200399406C
:1035D00014BF401E20F00100704780084FEA1223FC
:1035E00008BF7047B0FA80FCA2EB0C02CCF1280CAB
:1035F00060FA0CF093EA122F04BF00EBC250704740
:103600004FEAC3707047130A5FEADC1008BF7047C7
:10361000F6E79CEA026F04D010EA5C0F08BF0020B6
:10362000704710B5FFF745FF40DFF63E81F00040E0
:103630007047FCF773BF010202030405060708097F
:103640000A0B0C0D0E0F101000000000000000000F
:103650000102030406070809000000000102030438
:1036600002400000000000A0000000000540000033
:10367000000000C8000000000C4000000000409C5A
:1036800000000000194000000020BCBE0000000047
:1036900034400000BFC91B8E00000004B54000008C
:1036A000504BCFD06607E2CF010000006C41000014
:1036B0003E8251AADFEEA73401000000D94200008B
:1036C000DCB5A0E23A301F97FFFFFFFFB4450000D2
:1036D000FD25A0C8E9A3C14FFFFFFFFFFF3F00008A
:1036E0000000008000000000FF3F0000000000809C
:1036F0000000000030370008000000205C000000DF
:10370000280100088C3700085C0000208C070000AE
:10371000440100081C00000043000000F8FFFFFF08
:103720000C0000000E0000000F0000002E00000042
:103730000000000000000000000000000000000089
:103740000000000000000000000000000000000079
:1037500000000000000014420000FA43000048424C
:10376000000070420AD7233C000000000000000067
:103770000000000000000000000000000100000048
:0C37800010000000000000000024F40015
:04000005080000ED02
:00000001FF
